:400000000080002011000000650300006503000008B5044B1A6803F53F5302331A6000F0A9F900BFFA46004010B5054C237833B9044B13B10448AFF300800123237010BD05
:400040004081FF1F00000000600B0000084B10B51BB108490848AFF300800848036803B910BD074B002BFBD0BDE81040184700BF000000004481FF1F600B0000C880FF1F3C
:400080000000000010B500F02FFA044600F00CFB024B1B68024AD45410BD00BF5C81FF1F7481FF1F08B562B6114800F0F9FC00F00DFA00F01FFA00F047FB012000F0F8FAFB
:4000C00000F0C0FB00F07CFB00F0F8FB00F038FC00F0BEFC074800F081FB072000F0FCFB012000F03BFC0022034B1A70FEE700BF85000000020005017281FF1FFEE700BF4C
:40010000F0B40022174611E050F82760F3B226F0FF0608E001EB420511F812406D78A5550132013BDBB2002BF4D101371F2FEBD9F0BC7047064B1B78DBB203F00701054A73
:4001400011701B09013213704422034B1A707047CF0100496E5800407658004008B50A46002100F0F4FC08BD38B50222284B1A80182328490B7017200231088002310B704A
:4001800033200231088002310B70234B1A7008224FF040231A70032103F5007319701F4B1B78DBB21E490B701E4B1A8041F25122023B1A80002419250CE01B4B1B7803F0F7
:4001C000010343EA440404F003044FF4F07000F077FC013D0DB1032CEFD115B90320FFF78DFF124B4FF480721A8007221A7000220F490A704820023108701A700222033B55
:400200001A700C4A137843F00703137038BD00BF80400040824000400043004008010049A146004022420040254200400440004006400040A243004008B500F07DFC08BD7C
:4002400038B572B6364A137843F00403137000240CE0344D630019194A0011462A44084691882858FFF77AFF0134E4B20A2CF0D900240CE02B48A20011194B000344B3F8C0
:400280004C20996C586CFFF7D7FF0134E4B2012CF0D925494FF09040FFF732FF234A137843F0020313701032137843F0020313701F4C237843F040032370A2F58632513AB4
:4002C000137843F0100313700A221A491A48FFF7B3FF082219491A48FFF7AEFF082219491948FFF7A9FF0A2218491948FFF7A4FF184A137843F008031370174D61232B703D
:40030000FFF732FF81232B700122144B1A70FFF711FF0E2221461248FFF78EFF38BD00BFE8460040640B00008000004803500140A043004030090048005100403C09004822
:400340001251004044090048225100404C09004830510040224300400048004004000840B043004008B500F0BBFB03680C2B00D1FEE7FEE708B5104E104D16E029686B6816
:40038000AC68002204E051F8040B43F8040B0432A242F8D1E868002203E0002143F8041B04328242F9D11035013E002EE6D100F09DFBFFF777FEFEE701000000E40B0000D9
:4003C00008B5104A104B1A60104A136843F40073136000230AE0032B03D80D4A52F8231000E00C490C4A42F8231001332F2BF2D90A4B1A780A4B1A70074A0A4B1A60FFF708
:400400001FFF08BD0004FA050CED00E014ED00E000000000650300000080FF1FBC760040C080FF1F08ED00E001BE704710B5044605E0084B186800F043FBA4F50044B4F580
:40044000004FF6D8034B586800FB04F000F038FB10BD00BFCC80FF1F08B5034B1B7A00FB03F000F02DFB08BDCC80FF1F7222084B1A702022013B1A700622A3F5B2731A708C
:40048000472210331A70002251331A70704700BF8665004010B500F01BFB04460A4A137843F020031370013A137843F010031370A2F20312137843F01003137000F02CF8C8
:4004C000204600F009FB10BD9665004008B5054B1B7823B9FFF7CAFF0122024B1A70FFF7D9FF08BD6081FF1F014B1878704700BF4565004008B500F0EBFA064B1A7842F0F0
:4005000001021A701A7802F0FE021A7000F0E4FA08BD00BF95650040054A137843F0040313701032137843F004031370704700BFA243004010B50B4C237803F09F032370F9
:40054000237803F0F00323702378184340F0100020700120FFF780FF237803F0EF03237010BD00BF2051004038B505460E4C237843F020032370237803F0BF0323700020A2
:40058000FFF76AFF237803F0F003237023781D4345F0100525700120FFF75EFF237803F0EF03237038BD00BF2051004070B5354B1A7802F08002D2B21A7033490A7802F059
:4005C000F00242F00F020A7001310A7802F0F0020A7001310A7802F0F0020A701A7802F0DF021A701A7842F040021A704FF4CA760020FFF731FF234D2B7843F010032B70EC
:400600000120FFF729FF214B1C78E4B22B7803F0EF032B700020FFF71FFF04F00804E4B22B7843F010032B700120FFF715FF2B7803F0EF032B7014B90A20FFF70DFF013EEE
:400640000CB1002ED4D10F4A137803F0BF031370137803F08003DBB213700232137803F0F00313700132137803F0F00343F00F0313700132137803F0F00343F00F031370BD
:4006800070BD00BF20510040225100402151004010B50446FFF78AFF2009FFF765FF04F00F00FFF761FF10BD08B5FFF7F1FF08BD10B50446FFF77AFF2009FFF73BFF04F0CE
:4006C0000F00FFF737FF10BD08B52820FFF7AEFE0320FFF72FFF0520FFF7A8FE0320FFF729FF0F20FFF7A2FE0320FFF723FF0120FFF79CFE0220FFF71DFF0520FFF796FE6E
:400700000620FFF7D5FF0E20FFF7D2FF2C20FFF7CFFF0820FFF7CCFF0120FFF7C9FF0C20FFF7C6FF0320FFF7C3FF0520FFF77EFE08BD00BF08B50C20FFF7BAFF0122014B18
:400740001A7008BD6281FF1F08B5054B5B7823B9FFF7BAFF0122024B5A70FFF7EBFF08BD6281FF1F08B500F0B3F9044A137843F01003137000F0B0F908BD00BF976400408B
:4007800008B5044A137843F001031370FFF7EAFF08BD00BF74640040054B1A7802F0F8021A701A7800F0070010431870704700BF8764004008B50120FFF7EEFF08BD00BFCC
:4007C00008B5054B1B7823B9FFF7F4FF0122024B1A70FFF7D5FF08BD6481FF1F014B1860704700BF0464004008B500F071F9044A137843F01003137000F06EF908BD00BF92
:400800009965004008B5044A137843F001031370FFF7EAFF08BD00BF78650040054B1A7802F0F8021A701A7800F0070010431870704700BF8965004008B50120FFF7EEFF89
:4008400008BD00BF08B5054B1B7823B9FFF7F4FF0122024B1A70FFF7D5FF08BD6581FF1F08B500F035F9044A137843F01003137000F032F908BD00BF9064004008B5044AA7
:40088000137843F001031370FFF7EAFF08BD00BF70640040054B1A7802F0F8021A701A7800F0070010431870704700BF8064004008B50120FFF7EEFF08BD00BF08B5054BD4
:4008C0001B7823B9FFF7F4FF0122024B1A70FFF7D5FF08BD6681FF1F014B1870704700BF0064004008B500F0F3F8044A137843F01003137000F0F0F808BD00BF9465004055
:4009000008B5044A137843F001031370FFF7EAFF08BD00BF74650040054B1A7802F0F8021A701A7800F0070010431870704700BF8465004008B50120FFF7EEFF08BD00BF4B
:4009400008B5054B1B7823B9FFF7F4FF0122024B1A70FFF7D5FF08BD6781FF1F014B1870704700BF04650040084A137843F0040313701032137843F00403137002F66532DD
:40098000137843F001031370704700BFA3430040014B1870704700BF1B4F004010B50446094B1B7813F0040F02D00020FFF73CFD054B1A7842F004021A70044A14801A781D
:4009C00002F0FB021A7010BDA34300401E4F0040014B1880704700BF1C4F004008B5184B1A7802F001021A7016490A7802F0FC020A701A7842F004021A70134A137843F0EE
:400A000001031370114B1A7802F0CF021A701A7842F030021A701A7802F0F0021A701A7842F00F021A704FF40470FFF7D1FF4FF40470FFF7B3FF0020FFF7AAFF08BD00BFF6
:400A4000184F00401A4F0040194F0040234F004008B5054B1B7823B9FFF7C0FF0122024B1A70FFF781FF08BD6881FF1F014B1B685864704708ED00E04001C0B2014B1870C1
:400A8000704700BF01E400E00222014B1A60704700E100E00222014B1A60704780E100E010B50446FFF7F6FF2046FFF7DFFF0720FFF7E2FFFFF7E8FF10BD00BF000000001C
:400AC0000230800803D000BF01380046FCD17047EFF3108072B6704780F31088704700BF014B1868704700BF3C81FF1F0E4B70B51E460E4C0025E41AA410A54204D056F89C
:400B0000253098470135F8E700F05AF8084B094C1E46E41AA4100025A54204D056F8253098470135F8E770BDCC0B0000CC0B0000CC0B0000D40B000010B5431E0A4491421D
:400B400004D011F8014B03F8014FF8E710BD03460244934202D003F8011BFAE77047000000000000004F00402400405100403000C05100401000F051004010000000014089
:400B8000001000140140800000150140000180160140800500400140000A004C0140000200500140200000008014014030080048800000160140B0080048800043000000E3
:400BC000F8B500BFF8BC08BC9E4670474D000000C1030000F8B500BFF8BC08BC9E46704729000000F80B0000C880FF1F780000004000000000000000000000000000E02E8E
:400C0000C05D00001800000000366E010000000000000000000000000000000000000000000000000000000000000000BC0B00000000000000000000000000000000000013
:400C40000000000000000000000000000000000000000000000000000000000000000000000000000000000000000000DC80FF1F00000000000000000000000000000000FA
:400C80000000000000000000000000000000000000000000000000000000000000000000000000000000000000000000000000000000000000000000000000000000000034
:400CC00000000000000000000000000000000000000000000000000000000000000000000000000000000000000000000000000000000000000000000000000000000000F4
:400D000000000000000000000000000000000000000000000000000000000000000000000000000000000000000000000000000000000000000000000000000000000000B3
:400D40000000000000000000000000000000000000000000000000000000000000000000000000000000000000000000000000000000000000000000000000000000000073
:020000040003F7
:0200000480007A
:40000000064F004003520040026400400365004062000140340101404C020140410301405A040140310501405F060140430701400308014005090140010B0140020D01409C
:400040001E1401404915014019160140411701403B1801401D190140041A0140031B0140044001400E410140154201400F430140044801400949014009500140025101400E
:4000800001800A4B0D10166319802227020118401C80820F870185388672890104020E0F170118011A061C0129013204330134083603388239803A283F044101440445C062
:4000C00046DE47BF483E49FF4AFF4BFF4CEA4D554EB04F48501C52015804590A5A045B045C915D115F0161086308650867086850690A6A406BA86CC06E406FA8840A861461
:40010000870D88138A0C8E0895079738982099729A059B0C9C039E049F20A370A413A507A604A758B33CB40FB568B630B703B880B980BA20BB28BF40C001C540C9FFCA07D6
:40014000CBFFCC40CD20CEF0CF05D008D804D904DA04DC22DD02DF01E040E1A8E240E320004001080540060807100A050F061704184019081A051D401F602104230125500C
:40018000271429102E082F6032083520368037143F0441404302454049024C204E804F04512852415302590261286240698079088904C0E5C2C3C420CAC4CC72CE40D01961
:4001C000D601D80EDE02E680032005300608070C0810092C0B1112011514160218101B031D102109231027202801291C2A022B222D402E0430083204331F34033540361077
:4002000037203AC03F5040214103450B460E47C0482549FF4AFF4BFF4EF04F44500C5401580459045A045B045C215D225F0166C06A406B0282019608970298049C089D041A
:400240009E02AA04AB01AD02AF01B202B303B401B60CB704BA80BF40D804D904DC99DF010102050406040A150D080E48120815011681171019901A141D081E411FA0200278
:40028000220824042640272029902C202D202E802F40320833803508368037203D203E283F02454046284D08568057015C045D115E8083018401860189108B0193819920F1
:4002C0009A099D10A020A110A280A608A701AE01C068C277C4C2CAFCCC7ACEE0D070D6F0E80801040508110815041701190121082B02310433023508370139A23AC03F10B0
:4003000040104104440645B0480249FF4AFF4BFF4CEF4D554E704F48501C5201580959045A0A5B0A5C915D115F0161086308650867086850690A6A406BA86CC06E406FA808
:40034000830184029304970299029B049E01A708B002B201B306B501B708BA08BE01C010C104C406C9FFCAFFCBFFCCEFCD55CE72CF48D01CD808D90ADA0ADC19DD01DF0173
:40038000E108E308E508E708E850E90AEA40EBA8ECC0EE40EFA807200D8018021A021E201F0221982202271A28802B042F20300131183610370A38023B083F014002430163
:4003C0004402460147014B114F106B0179287A207E22870299109B209D049E049F10A604A902AC20AD40AF20C020C280CA45CCE7CE83D099D224DE56010603010701080285
:4004000009010B0614021506170119071A011C022402250229062D043002340135073B203E0140104104440649FF4AFF4BFF4CEF4D554E724F48501C580459045A0B5C2120
:400440005D015F0161086308650867086850690A6A406BA86CC06E406FA8830197029E019F04A801B201B301B504B702B802BE04C030C104C406C5C0C6DEC70FC81EC9FFAC
:40048000CAFFCBFFCCEACD55CEF2CF48D01CD401D604D80BD90ADA0ADB0ADC11DD11DF01E108E308E508E708E850E90AEA40EBA8ECC0EE40EFA805100A020E210F2412086F
:4004C000170818201A901E482288230427082D802E28328835103708380239013D083E013F20421043014601474149014B104F105188521059015B406080618862107909A7
:400500007F408002824083088B1090029202950897109B019C819D049E01A604A720AA04AB04AF04C040C2E1C422CA70CC6ACEE1D093D224D609D80FDE83E201BF40D904C7
:40054000DF01214081408B089101E68091019101AD014104440645CB46DE470F481F49FF4AFF4BFF4CEA4D554EB04F48501C52015A045B045D115F0161086308650867085A
:400580006850690A6A406BA86CC06E406FA804020510062007010C020E010F28100413201410168A1C101D101E081F612510268027212E302F6230083104344036803E0CC8
:4005C0003F014240441045104602480849054C014E084F285254570259015E026254640467426A40828083018B408C108E019002921598109A029C409D049E80A002A20886
:40060000A604AD04AE12AF40C0F0C2F0C4F0CAF0CC10CEC0D071D234D681D8BEE220EA08C010C105C406C9FFCAFFCBFFCCEFCD55CE72CF48D01CDA0ADD01DF01E108E308FD
:40064000E508E708E850E90AEA40EBA8ECC0EE40EFA8059206A00C020D080E091440160A17041D101E212402250C260827042C022E2930103110359236083D403E16400205
:40068000440246014B504F5057205E406D406E147580762879087F4084018740924093109508960197809A019C019D949E28A002A504A610A720AA04B410B601C0F0C2F0CE
:4006C000C4F0CAF0CCF0CEF0D018D23CD610DE82E202E60240604105440349FF4AFF4BFF4CEF4D554E724F48501C52015A0B5B0B5D115F0161086308650867086850690A9B
:400700006A406BA86CC06E406FA8C060C105C403C5C0C6DEC70FC81EC9FFCAFFCBFFCCEACD55CEF2CF48D01CD401D604DA0BDB0BDD11DF01E108E308E508E708E850E90A60
:40074000EA40EBA8ECC0EE40EFA8422046204708480249014A084C024E0851A859015A4061AA6C026E8079017D0185028640910192409F08A208B648D042D23CD609D80F78
:40078000DE81EC40B920BF10D904DF0127089F08AD01304035208920CC30038053046F028001844087029C409D20A120C010D420DA80E290E6101110128017041B043F082E
:4007C00060016120870890019D20A120AB80AF04C470C610CE80D640D840E210EC20EE1066026F40738083C09B089D20AA80AB04AD10D880DCC0E280E680E880EC309B08F3
:400800009D20AA02EE200D405F08814089209B089D20C280D680E08000060101080609010A060B0110061A061C02000F040C000000022014070600001900060014000100A5
:40084000000058000000180000002000000458120A0001015800000807060000580000012000180107184006800000000000011416030500020C00E021FFFFFF62A0F04118
:400880000C0000001800040004040404222200010000000000004002001030100010101200000000000000000000000000000000410400180C0200007F0200000802000001
:4008C0004F00100100003304031C00004C102300021C0000000840000418000073180C0400000F0200017C1C0000A80000000000100500000600B00008FFFFFFEF55704888
:400900001C0000000000021004040B04222100010008000800080008500A40A8C00040A800000000000000000000000000000000010000010000010100000000000B0B000A
:4009400000000000007F7F000000000040008040400040000000000000000000000000000000000000000000000000000000000000000000000000000000000000000000F9
:400980000000000000000000000000000000000000000000000000000000000000000000000000000000000000000000000000000000000000000000000000000000000037
:4009C00000000000000000000000000000000000000000000000000000000000000000000000000000000000000000000000000000000000000000000000000000000000F7
:400A000000000000000000000000000000000000000000000000000000000000000000000000000000000000000000000000000000000000000000000000000000000000B6
:400A40000000000000000000000000000000000000000000000000000000000000000000000000000000000000000000000000000000000000000000000000000000000076
:0200000490006A
:0400000000004005B7
:0200000490105A
:04000000BC90ACAF55
:0200000490303A
:020000003401C9
:0200000490402A
:4000000000000000000000000000000000000000000000000000000000000000000000000000000000000000000000000000000000000000000000000000000000000000C0
:400040000000000000000000000000000000000000000000000000000000000000000000000000000000000000000000000000000000000000000000000000000000000080
:400080000000000000000000000000000000000000000000000000000000000000000000000000000000000000000000000000000000000000000000000000000000000040
:4000C0000000000000000000000000000000000000000000000000000000000000000000000000000000000000000000000000000000000000000000000000000000000000
:0200000490501A
:0C00000000012E11E06900012E19146AA5
:00000001FF